{
  "txid": "5d1b3bc52883f7b4da40293677e49bcc8703fdc0e70db9ae197ecf4dc90b08f2",
  "hash": "5d1b3bc52883f7b4da40293677e49bcc8703fdc0e70db9ae197ecf4dc90b08f2",
  "version": 2,
  "size": 225,
  "vsize": 225,
  "locktime": 101,
  "vin": [
    {
      "txid": "af8448bd7d1187bc281b0d59bc9727a2d9453c301f37cd496a3f4dac89a297d1",
      "vout": 1,
      "scriptSig": {
        "asm": "30440220641733e520d0af3decbef1bec4674a6bfabccc826e040cee235b59306537afa802201b92f9cbcca171c2b8af2da8e95c6b18586ba80e7734291931a3306e7d99cdef[ALL] 032da1df2f866c44bf40cf82321c876b975979d69528a5d25fbf4bfac909402871",
        "hex": "4730440220641733e520d0af3decbef1bec4674a6bfabccc826e040cee235b59306537afa802201b92f9cbcca171c2b8af2da8e95c6b18586ba80e7734291931a3306e7d99cdef0121032da1df2f866c44bf40cf82321c876b975979d69528a5d25fbf4bfac909402871"
      },
      "sequence": 4294967294
    }
  ],
  "vout": [
    {
      "value": 0.00010000,
      "n": 0,
      "scriptPubKey": {
        "asm": "OP_DUP OP_HASH160 0766c79f06e7791a78fee17e15bc1adea4ebb888 OP_EQUALVERIFY OP_CHECKSIG",
        "hex": "76a9140766c79f06e7791a78fee17e15bc1adea4ebb88888ac",
        "reqSigs": 1,
        "type": "pubkeyhash",
        "addresses": [
          "mgC69fG5F5455zCUM9ppU1r85vo6raUWBP"
        ]
      }
    },
    {
      "value": 48.99865480,
      "n": 1,
      "scriptPubKey": {
        "asm": "OP_DUP OP_HASH160 2e4e1435c36488fdc72d46ffc31e8fcbf7094c20 OP_EQUALVERIFY OP_CHECKSIG",
        "hex": "76a9142e4e1435c36488fdc72d46ffc31e8fcbf7094c2088ac",
        "reqSigs": 1,
        "type": "pubkeyhash",
        "addresses": [
          "mjjnuu4eFPsUYxc9eNQpBEXxjRsTJm4cd6"
        ]
      }
    }
  ],
  "hex": "0200000001d197a289ac4d3f6a49cd371f303c45d9a22797bc590d1b28bc87117dbd4884af010000006a4730440220641733e520d0af3decbef1bec4674a6bfabccc826e040cee235b59306537afa802201b92f9cbcca171c2b8af2da8e95c6b18586ba80e7734291931a3306e7d99cdef0121032da1df2f866c44bf40cf82321c876b975979d69528a5d25fbf4bfac909402871feffffff0210270000000000001976a9140766c79f06e7791a78fee17e15bc1adea4ebb88888ac88030e24010000001976a9142e4e1435c36488fdc72d46ffc31e8fcbf7094c2088ac65000000"
}
